:10000000008000207D080000C1080000BF0800003B
:10001000C1080000C1080000C1080000C1080000BC
:10002000C1080000C1080000C1080000C1080000AC
:10003000C1080000C1080000C1080000C10800009C
:10004000C1080000C1080000C1080000C10800008C
:10005000C1080000C1080000C10800007D130000B5
:10006000C1080000C1080000C1080000C10800006C
:10007000C1080000C1080000C1080000C10800005C
:10008000C1080000C1080000C1080000C10800004C
:10009000C1080000C1080000C1080000C10800003C
:1007C00010B5054C237833B9044B13B1044800E04D
:1007D00000BF0123237010BD7C000020000000003A
:1007E0003426000008B5034B1BB10349034800E061
:1007F00000BF08BD0000000080000020342600007B
:10080000A3F5803A704700BF174B002B08BF134B6E
:100810009D46FFF7F5FF00218B460F461348144A0B
:10082000121A01F08CFE0E4B002B00D098470D4B96
:10083000002B00D098470020002104000D000D4837
:10084000002802D00C4800E000BF01F047FE200065
:10085000290000F047FE01F02DFE00BF0000080057
:100860000000000000000000008000207C0000204C
:10087000A4000020000000000000000000F02AF8A2
:10088000104C114DAC420ADA21686268A3689B00E3
:10089000043BA2BFC858D050FAE70C34F2E70B4B28
:1008A0000B4CA34209DA19685A6892000020043AF6
:1008B000A4BF8850FBE70833F3E7FFF7A5FFFEE787
:1008C000FEE700001827000024270000242700006E
:1008D0002427000070B44FF400464FF0FF354FF668
:1008E000DF740220104B114A11499A60D3F8882016
:1008F00042F47002C3F888200E4A966601F5005251
:1009000015665466C3F8D000BFF34F8FBFF36F8FE7
:1009100008244FF440330848C0F88041D360046095
:100920000B6170BC704700BF00ED00E000000000EC
:10093000008000440090005000E100E0014B186886
:10094000704700BF04000020094B1B6F03F0070332
:10095000022B09D0032B04D0012B00D0FEE7054861
:100960007047054B18687047044B1868704700BF04
:1009700000800050002D31010800002004000020FC
:100980000D4B1B6F03F00703022B12D0032B0DD06E
:10099000012B00D0FEE7094B0749094A086FC0F355
:1009A00003300130B3FBF0F010607047054B1B685B
:1009B000F2E7054B1B68EFE700800050002D310186
:1009C000000000200800002004000020014B1868EF
:1009D000704700BF080000200020704700487047A3
:1009E000002D31014FF40040704700BF4FF47A7082
:1009F000704700BF014B1868704700BF0C00002013
:100A000038B5174B0546D3F824310C4603F00703DD
:100A1000013B052B20D8DFE803F00B0F13171B0356
:100A2000FFF7D4FF042305B1286004B1236038BD6B
:100A3000FFF784FF0523F6E7FFF7C8FF0323F2E77C
:100A4000FFF7CCFF0223EEE7FFF7C6FF0723EAE735
:100A5000FFF774FF0623E6E700231846E3E700BF2D
:100A60000080005038B5134B0546D3F800320C46D1
:100A700003F00703013B032B18D8DFE803F00F1343
:100A80000B02FFF77DFF0E23800A05B1286004B139
:100A9000236038BDFFF7AAFF0B23F6E7FFF7A2FF9D
:100AA0000923F2E7FFF7A6FF0823EEE70023184625
:100AB000EBE700BF00800050430904D0012B13D0A6
:100AC000022B13D00A4B00F01F0031B1012203F5B5
:100AD000805302FA00F018607047012203F50053BA
:100AE00002FA00F018607047024BECE7024BEAE7AD
:100AF000608200506480005068800050002300B580
:100B0000B0F5807F83B0019300F2F1801F2840F29E
:100B1000E7802038E02800F2E680DFE810F06E0180
:100B200060016E0160012D012D012D012D0160017B
:100B30006001AA01740120018B0174016001600150
:100B40006001E400E400E400E400E400E4004D019E
:100B50009101600160016001F9007F016001E40022
:100B6000E400E400E400E400E400E400E400E40065
:100B7000E400E400E400E4006E01E4006E016E01B4
:100B80006E012D01E400E400E400E400E400E40070
:100B9000E400E400E400E400E400E400E4006E01AA
:100BA0006E01E400E400E400E400E400E400E4009A
:100BB000E400E400E400E400E400E400E400E40015
:100BC000E400E400E400E400E400E400E400E40005
:100BD000E400E400E400E400E400E400E400880150
:100BE000E400E400E400E400E400E400E400E400E5
:100BF000E400E400E400E400E400E400E400E400D5
:100C0000E400E400E400E400E400E400E400E400C4
:100C1000E400E400E400E400E400E400E400E400B4
:100C2000E400E400E400E400E400E400E400E400A4
:100C3000E400E400E400E400E400E400E400E40094
:100C4000E400E400E400E400E400E400E400E40084
:100C5000E400E400E400E400E400E400E400E40074
:100C6000E400E400E400E400E400E400E400E40064
:100C7000E400E400E400E400E400E400E400E40054
:100C8000E400E400E400E400E400E400E400E40044
:100C9000E400E400E400E400E400E400E400E40034
:100CA000E400E400E400E400E400E400E400E40024
:100CB000E400E400E400E400E400E400E400E40014
:100CC000E400E400E400E400E400E400E400E40004
:100CD000E400E400E400E400E400E400E400970140
:100CE000002800F08A80002003B05DF804FBB0F516
:100CF000906F00F0A58019D9B0F5D06F00F09A8000
:100D000026D9B0F5E06F00F08980B0F5F06FEAD138
:100D1000634BD3F8603103F00303022B26D0032B7F
:100D20006ED0012BDFD1FFF75DFEDDE7B0F5407F30
:100D300069D030D9B0F5607F1BD1FFF705FE584B65
:100D4000D3F88030C3F301130133B0FBF3F0CBE7EA
:100D5000B0F5B06F00F08D80B0F5C06F29D1504B69
:100D6000D3F8403103F00303022BD8D1FFF742FE42
:100D7000BAE7B0F5806FB6D1494BD3F8203103F014
:100D80000303022B00F08980032B7CD0012BAAD116
:100D9000FFF7D4FDA8E7B0F5007F1DD1FFF7D4FD24
:100DA0003F4BD3F89030C3F304630133B0FBF3F04F
:100DB0009AE7B0F5A06F96D1394AD2F8203203F005
:100DC0000303012B62D0022B8DD1D2F8403103F006
:100DD0000303022BA3D1C9E7B0F5207F09D1FFF7A8
:100DE000CFFD2F4B1B6FC3F380230133B0FBF3F018
:100DF0007AE7B0F5C07F7FF476AFFFF7C1FD73E708
:100E0000FFF7F4FD70E7FFF7BBFD254B1B6FC3F346
:100E100080230133B0FBF3F0400865E7204BD3F8A3
:100E2000403203F00303022B7FF479AF9EE7FFF714
:100E30008BFD59E701A80021FFF714FE019853E745
:100E400001A80021FFF7DCFD01984DE74FF0E023FA
:100E5000186910F00400D0D1114BD3F8403103F0E1
:100E60000303022B82D0032BCAD0012B7FF43CAFAB
:100E700059E70B4AD2F8803103F00303012B05D068
:100E8000022B7FF430AFFFF7A9FD2DE7D2F8203118
:100E900003F00303022B7FF477AFFFF797FD23E7FF
:100EA00000800050EFF3108072B6704700B962B650
:100EB000704700BF2DE9F84304460D461646984694
:100EC0006AB10122002B55D142F2100104EB440318
:100ED0001B0103F1A04303F57033AA405A50072DBC
:100EE0004FF0300729D8042317FB0437FFF7DAFF48
:100EF0000F2307F1A04707F5703739684FEA850CD3
:100F000006FA0CF24A4003FA0CF313404B403B60E4
:100F1000FFF7CCFF7EB90121B8F1000F27D142F2D3
:100F2000100304EB4404240104F1A04404F57034DC
:100F300001FA05F5E550BDE8F8830C2317FB0437EB
:100F4000A5F108034FEA8309FFF7ACFF0F2307F170
:100F5000A04707F57037396806FA09F24A4003FAE4
:100F600009F313404B403B60FFF7A0FFD2E741F28B
:100F70001003D6E741F21001A8E700BF30B402E049
:100F800003695B0602D5036BDA07F9D4012300F588
:100F900000524D884C7813630B794A7A1B0243EA5E
:100FA000854313430CB143F040038A7A0AB143F0FE
:100FB0008003CA7A0AB143F020030A7B0AB143F0E6
:100FC00010034A7B0AB143F008038A790AB143F45B
:100FD000803301250C7800F58052436015635CB9BD
:100FE00002234A79C3604462CC790B7A43EA8403D2
:100FF0009AB930BC8360704700234A794362CC7948
:101000000B7A43EA840322B98360012330BCC360B6
:10101000704743F010038360F7E743F01003E8E7FD
:10102000F0B502E003695B0602D5036BDC07F9D477
:10103000D3790124002B537A14BF4FF48017002773
:10104000002B14BF1026002600F5005E157ACEF89E
:101050003040937992F80BE000EB411C43EACE4319
:101060003B433343CCF86030DCF86030D5B9CCF882
:101070006030012300F58050917A03635378107833
:101080001B0643EA8063D07843EA00331079527933
:1010900043EA802343EA022309B143F00403CCF876
:1010A0006430F0BD157B184E43EA4543CCF8603000
:1010B000B042937822D006F58046B0420DD0134C52
:1010C000A0421DD004F58044A0421BD004F580440A
:1010D000A0420CBF04244FF0FF34012D04EB440464
:1010E00005D001EB44010A4C89006350C1E701EBD4
:1010F00044040749A4001B020B51BAE70024ECE7A3
:101100000224EAE70324E8E70080045000000550C9
:101110000C81035030B5046B04F0010402E0036954
:101120005D0602D5036BDB07F9D4012300F50052FD
:1011300000F5805C1363C2F8E030CCF8304002E088
:1011400003695B0602D5036BDC07F9D40123CC7875
:101150000D79002C14BF0224002413630DB344F452
:101160000064C0F8E0407D4C4D79A04200F0BB80A7
:101170007B4CA0420FD07B4B984200F0C28003F51D
:101180008043984200F0C38003F5804398420CBF2F
:1011900004234FF0FF33744C03EB4303DB00E550B3
:1011A00001E0C0F8E0408C68CB8843EA8423CC6837
:1011B00043EA0443C0F8E4300B7D4C7D002B14BFA0
:1011C0004FF0006300230CB143F080638C7D5CB36F
:1011D0000C7E43F08073002C79D08D7E43EA05436A
:1011E0005E4D43F00073C0F8E830A842CB7D00F0BC
:1011F00097805B4DA8427AD005F58045A8427BD008
:101200005A4DA84200F09F80594DA84200F08180BD
:10121000584D6B6064B34FF0FF344D7E564B04EB7A
:101220004404E4001D5123E00D7EE5B18D7E43EAC8
:10123000054343F00073C0F8E830484B4D7E9842B8
:10124000ECD0474B984250D003F5804398425AD097
:1012500003F58043984258D0454CA0420CBF04246B
:101260004FF0FF34DAE78C7E43EA0443C0F8E830FD
:101270004B780124002B14BF4FF0020E4FF0000EEC
:101280008B78CCF8304043EA0E03C0F8EC300B69A1
:101290000C78C0F8F030D0F8F430016BC0F8F830BA
:1012A000016B01F0010102E003695B0602D5036BEB
:1012B000DD07F9D40123136324B1CCF8E030CCF876
:1012C000301030BDC2F8E030CCF8301030BD8D7E2B
:1012D00043EA0543214DC0F8E830A842CB7D24D134
:1012E000244CE361C4E7002355E7012496E7214C31
:1012F00063634D7E012491E71E4CE3644D7E02241E
:101300008CE7022347E7022488E7032486E70323C8
:1013100041E7184DEB67002CAAD004244D7E7DE7F1
:10132000144CE3614D7E002478E70D4DA84212D0A5
:1013300005F58045A8420BD00C4DA8427FF464AF60
:101340000C4C636694E70B4C63664D7E032465E7A3
:10135000084CE3648CE7074C636389E70080045022
:1013600000C0045000000550188103500040055093
:101370000080055000810350208103500A4B0B4A26
:10138000586903F500514861D2ED007A084AF8EE39
:10139000677A92ED007A67EE877AFCEEE77A1A6B4D
:1013A000C3ED1C7A704700BF008004509C000020F1
:1013B00098000020002304220221012010B5FFF72D
:1013C00079FDBDE810400023042201201946FFF7F3
:1013D00071BD00BF08B501213A20FFF76DFBBDE8E4
:1013E000084001212420FFF767BB00BFF0B53F2272
:1013F00000250323012691B0DFF8E4E00DF1240C71
:1014000005950295ADF816208DF80A30BEE80F005C
:10141000ACE80F009EE807002A4C8CE80700204645
:1014200005A9CDE906550195ADF8205003958DF835
:1014300010508DF827608DF82560FFF79FFD224B37
:1014400001AAC3F87C65C3F88065D3F87C052946FA
:1014500040F00800C3F87C051C481D4FC3F88C05FC
:101460002046FFF7DDFD09A92046FFF753FE4FF0A8
:101470007C5324203B60FFF741FBBDF81630154933
:101480003344B0FBF3F0A1FB0030000907EE900AF3
:10149000114AF8EEE77A1060236BE06197ED007A6D
:1014A00067EE877AFCEEE77A236BC4ED1A7AE66082
:1014B000A36943F01003A3618022084B1A6011B0A6
:1014C000F0BD00BF0080045000C0035001000200C6
:1014D00098000020898888889C00002000E100E0B6
:1014E0001426000008B5104B1B68C3F30743012BFB
:1014F0000DD14FF4802304200C4A0D4C526E0D493F
:10150000520358BF0C4A6366086258BF5366FFF720
:1015100061FFFFF74FFFFFF769FF084A136923F0E8
:101520000403136130BFF9E70080E00F0080005032
:10153000009000500020015000A0005000ED00E09D
:1015400003685A004CBF43F0004323F000431844A3
:10155000704700BF2DE9F04739B301F1FF38064667
:1015600017464FF00009454619EB050148BF013108
:10157000491006EBC10ACC005046FFF7E1FF0834E2
:101580008845034606EB040009D0BB4209D8FFF7A3
:10159000D7FF013801F10109B842E5D307E0BB42AA
:1015A00005D9894501F1FF35DED14FF0000A5046DB
:1015B000BDE8F087012807D0022807D00028044B97
:1015C00014BF002018467047024870470248704711
:1015D000C51C0000C91C0000CD1C0000234B30B509
:1015E000044683B08D1E43B301A9284600E000BF26
:1015F000F0B101992A46FFF7ADFF0146C0B1FFF7F0
:101600009FFF4B68A064012B2CD0002B01F104003C
:1016100024DBFFF795FF0023C4E913030368002BC5
:1016200011DBFFF78DFF03460020236103B030BDBF
:1016300000230920236103B030BD0D480D49091A6C
:10164000C9100191D6E7C3F30360FFF7B3FF002889
:10165000206114BF0020092003B030BD0123C4E97C
:101660001303DBE7002305202361DFE70000000010
:1016700050260000182700000368DA0710B504465A
:1016800006D49B0700F1480009D500F08FFC2368C1
:10169000590709D51A070ED5DB0613D510BD00F082
:1016A0007DFC23685907F5D404F1D00000F086FCD6
:1016B00023681A07F0D404F5A87000F087FC2368AB
:1016C000DB06EBD404F5E870BDE8104000F0C2BCC6
:1016D000092070470346006800B11844704700BFF6
:1016E000704700BF70B504460E46316C2046FFF7C8
:1016F00075FF054698B9D6F840C0324623692146A1
:101700000120C4F814C098470828EED0072806D155
:101710002846316CFFF7E4FF301D00F033FC00F089
:10172000C1FE00BF2DE9F04701F1040CADF5747D59
:10173000C7680646D0F8188014460DF1140E04ADA3
:101740004FF00009BCE80F00AEE80F00BCE80F0046
:10175000AEE80F00BCE80F00AEE80F009CE80F00F9
:101760008EE80F00C5F8009023E02B6C4FF4F07268
:1017700029467CA8736100F0D5FE7CAA3146336906
:10178000504698478A9B2146814603933246039CE4
:10179000334601206C64CDE90058B8470446E8B9E7
:1017A0004FF4F0727CA9284600F0BCFEB9F1080F96
:1017B0001BD10934296C3046FFF710FF81465FFAD0
:1017C00084FA0028D1D0AC6B334632464AF010017F
:1017D0006C640120CDE90058B84708B14FF0090901
:1017E00048460DF5747DBDE8F087B9F1070FF5D1D6
:1017F0002046296CFFF774FF05A800F0C3FB00BF6B
:10180000406C7047F0B5CB6BF9B001F1040C0E469B
:101810000B6401AC05464FF0FF37BCE80F000FC466
:10182000BCE80F000FC4BCE80F000FC49CE80F0019
:1018300084E80F00009706E02B696A46294698471E
:101840000828044608D110992846FFF7C7FE00284B
:10185000F2D0092079B0F0BD6846FFF70DFF062CE5
:10186000F7D131462846FFF73DFF00BF10B4DC6BCF
:10187000C1601946826100221C6410BC52E700BF9F
:1018800070B54369C6680B64AEB903690A4604467D
:101890000D46014602209847072805D008280FD199
:1018A00029462046FFF71EFF3046296CFFF718FF38
:1018B000281D00F067FB0122FFF734FF00F0F2FD66
:1018C00000F0F0FDC2682AB1D1F83CC00022C1F896
:1018D00040C027E796E700BF704700BF8368014616
:1018E0000BB1012018477047012915D00CD88BB9CE
:1018F0000F2A94BF0021012161B900EB8202084642
:101900005368009A136070470339012994BF01207E
:1019100002207047022070470846704710B584B017
:1019200000230A4603AC19460094FFF7DDFF039835
:1019300004B010BD012915D00CD88BB90F2A94BF63
:101940000021012161B9009B00EB820208461B685F
:10195000536070470339012994BF0120022070476A
:10196000022070470846704710B584B0002303ACCE
:1019700003920A4619460094FFF7DCFF04B010BD3D
:10198000F0B5D36BADF50F7D141D064613640DF154
:101990005C0C0D464FF0FF370FCCACE80F000FCCBE
:1019A000ACE80F000FCCACE80F0094E80F008CE817
:1019B0000F00169710E0FFF7D7FF294616A8B0478B
:1019C000034616AA6946082083B9049B9847052850
:1019D00004460CD009280AD026996846FFF7FEFD78
:1019E00003466A460C2116A8002BE4D0092416A849
:1019F000FFF742FE20460DF50F7DF0BD2DE9F04FBB
:101A0000CC6C89B01E460D4654F8043B174600F0D6
:101A100003080694002E7FD01A0C1B048DF81D209D
:101A2000D2B20593022304EB82048DF81C30B8F186
:101A3000020F2B6D08BFAC6B13F0010308D005A992
:101A4000384600F0A1FB90BB082009B0BDE8F08F3C
:101A5000D4F800A0BAF1000FF1D0019300F0080310
:101A60000293022E54D0B4F800A0043434F8029C3F
:101A7000AB6C29F0010B0F2138469B44FFF74EFF5A
:101A8000834518D82AF001039B44834513D94FEAB4
:101A900049030AF0010A03F0020343EA0A03012B97
:101AA00000F0BF80022B00F08980002B4DD0092070
:101AB00009B0BDE8F08F4FEA49030AF0010A03F0CC
:101AC000020343EA0A03012B3AD0022B2AD0002B4F
:101AD000EDD10434D4F800A0BAF1000FC1D105A9AA
:101AE000384600F051FB0028E1D1019B002BABD020
:101AF0000F213846FFF712FF0E2102463846FFF746
:101B000033FF38466E4A0F21FFF72EFF0720CFE73D
:101B1000D4F804900834ABE71B0205930323ADF817
:101B20001C3084E7236823F0004BB8F1000F21D16B
:101B3000002B00DA04340BF1010B04EB8B04C9E732
:101B4000B8F1000F20D10834C4E7B8F1000FC0D0BD
:101B500020460434FFF7F4FC0646AC63284600E058
:101B600000BF0028A3D0384632460F21FFF7FCFE05
:101B700007209DE7D5F820900D213846FFF7CEFECF
:101B8000814579D02368D3E7D5F820900D213846D8
:101B9000FFF7C4FE8145D6D1AB6A9C42D3D1204623
:101BA0000F21FFF7CDFC02463846FFF7DDFE384631
:101BB0002A460021FFF7D8FE072079E7236823F0A3
:101BC000004BB8F1000FD5D1029A12B1BBF1000F52
:101BD000AED105F15803CDF80C8004F1040AB046EB
:101BE0004FF000091E460DE0504604960022FFF714
:101BF00071FD04AB014628460AF1040A00E000BF6B
:101C000000284AD1D94509F10109EDD10D21384605
:101C1000FFF784FE049B024606202A62C5E90934C8
:101C200046E7B8F1000FAFD163682268991C4FEA0C
:101C3000D2723FF43CAF05F158010133049131D029
:101C4000201DFFF747FD04AB0146284600E000BF1A
:101C500000283FF478AF81460D213846FFF75EFE3D
:101C6000B9F1020F286222D12B46049A43F82C2F97
:101C70006B620620AC621BE7AB6A9C4282D10423F4
:101C80000022C5F828B0C5E90B23E3186B6323686D
:101C9000002B0FDB012301934DE746462368DDF857
:101CA0000C8045E70D213846FFF738FE2862049B7B
:101CB0006B62DEE70BF101000F2104EB800070E79F
:101CC00000000000002399E6012397E6022395E631
:101CD0002DE9F0430646C3B015461C46042900F220
:101CE000C280DFE801F0A359C02C0300002C40F0B3
:101CF000BA80102A00F2B7800368DF0600F1B780CF
:101D000020AF384600F0B0F9B46B394600234FF0ED
:101D1000010C0CFA03F2204601332A4203D050F89A
:101D2000042B04460A60042B01F10401F1D138466A
:101D3000B46300F08FF9002043B0BDE8F083032CBA
:101D400040F091801FFA82F8140C08EB1245102D18
:101D500000F2898003681A0700F1CD8020AF384671
:101D600000F056F9B56B07EBC401B8F1000F0BD0CA
:101D70000B4601EBC8014FEAC808E81A1A5843F8A5
:101D8000042B8B42FAD145443846B56300F01EF966
:101D9000002043B0BDE8F08304F0FB034FEA124893
:101DA00095B2012B5FD1012C08EB050958D0B9F190
:101DB000200F58D8B8F10F0F75D9052CA94600F09F
:101DC000A480002D4FD1B36B65B320AF4FF0000955
:101DD00007EBC80703EBC505043F53F8041B9D42FE
:101DE00047F8041FF9D1B9F1000F0FD06F464146F3
:101DF00003EBC905102938BF102107EBC101843955
:101E000053F8040B9D4241F8040FF9D1012C7AD00C
:101E1000B8F10F0FB5636AD9B9F1000F02D0684667
:101E200000F0CCF8002043B0BDE8F083DCB9876B4C
:101E300023461FFA82FC0120341D00FA03F13A46C2
:101E400011EA0C0F04D052F8041B174644F8231073
:101E50000133102BF1D115F40050E3D1B76303E047
:101E6000B9F1100F0BD9022043B0BDE8F08323F085
:101E7000100300F5E870336000F0F6F840E7B8F1C1
:101E80000F0FF0D80368D80750D420AF384600F0C1
:101E900089F8B36B002D99D11D4604353846B563DA
:101EA00000F07CF8BEE7B9F1100F58D9052CDAD153
:101EB0003368A9F11009DD0709D523F00103304685
:101EC00043F0020340F8483B00F074F833685907C8
:101ED00021D420A800F06EF86F46C8F110053846EE
:101EE00000F070F8002DB36B81DD20AF70E720A803
:101EF00000F05CF890E723F0080300F5A870336069
:101F000000F086F82AE720AFC7E7002D3FF45BAF6B
:101F100033685A07E0D523F00403304640F8D03B3D
:101F200000F050F8B8F10F0FD6D8D2E723F0030332
:101F3000304640F8483B00F035F8012CA5D0B8F108
:101F40000F0F3FF640AF20AF384600F033F8B36BC9
:101F5000002D7FF43BAF384600F028F862E7336885
:101F6000D907EAD5052CE1D123F00103304620AF93
:101F700043F0020340F8483B00F01CF8384600F0FC
:101F800019F8E4E700F1340191E838009C46A646D0
:101F90004CF8045D90E8FF0FE54600BD90EC210B86
:101FA000704700BF80EC210B704700BF90EC200B06
:101FB000704700BF80EC200B704700BFD0EC200BB7
:101FC000704700BFC0EC200B704700BFF0EC02016F
:101FD000F0EC0211F0EC0221F0EC0231F0EC0241E5
:101FE000F0EC0251F0EC0261F0EC0271F0EC0281D5
:101FF000F0EC0291F0EC02A1F0EC02B1F0EC02C1C5
:10200000F0EC02D1F0EC02E1F0EC02F1704700BF1D
:10201000E0EC0201E0EC0211E0EC0221E0EC023124
:10202000E0EC0241E0EC0251E0EC0261E0EC027114
:10203000E0EC0281E0EC0291E0EC02A1E0EC02B104
:10204000E0EC02C1E0EC02D1E0EC02E1E0EC02F1F4
:10205000704700BFB0FC0181B0FC0191B0FC01A150
:10206000B0FC01B1704700BFA0FC0181A0FC019150
:10207000A0FC01A1A0FC01B1704700BFEC4600B577
:102080002DE900502DE9FF1F4FF000032DE90C0052
:1020900001A9FFF7B7FBDDF840E012B0704700BFC1
:1020A000EC4600B52DE900502DE9FF1F4FF000036D
:1020B0002DE90C0001A9FFF7E3FBDDF840E012B0C9
:1020C000704700BFEC4600B52DE900502DE9FF1F19
:1020D0004FF000032DE90C0001A9FFF7F3FBDDF839
:1020E00040E012B0704700BFEC4600B52DE900504B
:1020F0002DE9FF1F4FF000032DE90C0001ABFFF7A6
:10210000B5FBDDF840E012B0704700BFEC4600B50B
:102110002DE900502DE9FF1F4FF000032DE90C00C1
:1021200001AAFFF72DFCDDF840E012B0704700BFB8
:10213000027A03468AB9427AB2B14168013A4FF055
:10214000030C10B442720C1D086883F808C0020228
:102150005C60000E10BC1A6070470068013A1A7289
:102160000202000E1A607047B020704710B584B0AC
:1021700000230C2203AC19460094FFF7B5FB03982B
:1021800004B010BDF2E700BF2DE9F0434FF00008A6
:1021900085B006460D462846FFF7CAFFB02804461C
:1021A00000F0BC80070620D500F0F003802B4ED055
:1021B000902B37D0A02B61D0B02B76D0C02B00F065
:1021C0008D8000F0F803D02B0BD100F0070205231F
:1021D00001213046013242F40022FFF779FD002848
:1021E000D9D0092005B0BDE8F08383000DF10C09BA
:1021F0000D223046DBB2CDF800901F1D002319469A
:10220000FFF772FB039B60064FF00D023046CDF8DE
:1022100000904CBFDF1BFF18002303971946FFF700
:1022200089FBB8E700F00D030D2BDAD003AF0023D4
:1022300000F00F02304619460097FFF755FB0023C8
:102240000D22304619460097FFF774FBA3E72402DE
:102250002846FFF76DFF2043B0F5004FC1D00401C1
:1022600000233046A2B21946FFF732FD0028B8D14C
:1022700014F4004F18BF4FF001088CE7C243010768
:10228000304602F007034FF47F6242FA03F24FF048
:10229000000302F47F62194648BF42F48042FFF710
:1022A00017FD00283FF477AF9BE7B1283BD0B22859
:1022B00000F0A180B32841D000F0FC03B42B90D0F3
:1022C00000F0070201231A4442F400221946304666
:1022D000FFF7FEFC00283FF45EAF82E7C62851D02E
:1022E000C72862D000F0F803C02B71D0C82876D080
:1022F000C9287FF476AF2846FFF71AFF020300F0E3
:102300000F0002F470220130024301210523304600
:10231000FFF7DEFC00283FF43EAF62E7B8F1000FA4
:102320001FD000205EE72846FFF702FF0246002884
:102330003FF457AF10F0F003C8D052E72846FFF73C
:10234000F7FE00F00F0302033046013302F470225F
:102350001A4301231946FFF7BBFC00283FF41BAFCB
:102360003FE703AC43460E22414630460094FFF758
:10237000BBFA43460F22304641460094FFF7DAFA93
:1023800040462FE72846FFF7D3FE00F00F03020375
:102390003046013302F470221A4303231946FFF733
:1023A00097FC00283FF4F7AE1BE72846FFF7C0FE76
:1023B000024600283FF415AF10F0F0037FF411AF90
:1023C00004213046FFF784FC00283FF4E4AE08E720
:1023D00000F00F020323013242F4202276E7284660
:1023E000FFF7A6FE00F0F00200F00F0310320133F9
:1023F00043EA023289E700230DF10C090D22304631
:102400001946CDF80090FFF76FFA2846FFF790FEC7
:1024100002064FF002040BD500F07F00039BA040A2
:102420000734184403902846FFF782FE0306F3D4CE
:10243000039B00F07F02CDF800903046A24003F5E8
:1024400001731A440023039219460D22FFF772FA12
:10245000A1E600BFC26C0B464FF0030C18460832D1
:1024600052F8043C00B585B0029201A91A0E8DF80D
:102470000CC01B028DF80D200193FFF785FE05B0FF
:102480005DF804FB08B5FFF77DFE806C08BD00BF5A
:1024900008B5FFF777FEC06CC379023300EB830009
:1024A00008BD00BF062008B500F07AF8012000F052
:1024B000A3F8000008B5074B044613B1002100E063
:1024C00000BF054B1868836A03B19847204600F0A7
:1024D00093F800BF000000003026000070B50D4DDD
:1024E00000260D4C641BA410A64209D10B4D0026FA
:1024F0000B4C00F083F8641BA410A64205D170BDFC
:1025000055F8043B01369847EEE755F8043B013691
:102510009847F2E774000020740000207400002047
:10252000780000200A44431E914200D1704710B544
:1025300011F8014B914203F8014FF9D110BD02444B
:102540000346934200D1704703F8011BF9E71F29A6
:1025500038B504460D4604D9162303604FF0FF300A
:1025600038BD426C12B152F821304BB9204600F010
:1025700031F82A4601462046BDE8384000F018B838
:10258000012B0AD0591C03D1162303600120E7E771
:102590000024284642F8254098470020E0E7000044
:1025A000024B01461868FFF7D2BF00BF10000020A1
:1025B00038B50023064D0446084611462B6000F04E
:1025C00013F8431C02D12B6803B1236038BD00BF50
:1025D000A000002000F000B8024B58224FF0FF305E
:1025E0001A607047A0000020024B58224FF0FF30C5
:1025F0001A607047A0000020FEE700BFF8B500BFDA
:10260000F8BC08BC9E467047F8B500BFF8BC08BCD3
:102610009E4670470100000000000000000000001E
:10262000000000000900000001010000000001009E
:0826300014000020000000006E
:1026380008B10181B0B000840000000008B1018138
:08264800B0B0008400000000A6
:10265000B0E1FF7F0100000024E2FF7FB0B0B08056
:1026600074E2FF7F0100000074EFFF7FB0A90280D9
:1026700008F0FF7FB0B0A88058F0FF7F0100000095
:1026800064F0FF7FB0B0AA809CF0FF7FAE73B28091
:1026900070F1FF7F010000006CF1FF7FAB3F3880DD
:1026A000CCF1FF7F01000000D8F1FF7FB0B0AA801D
:1026B00014F2FF7F01000000C8F2FF7FAB0EB28072
:1026C0003CF3FF7FB0AF0880FCF5FF7F0100000006
:1026D00000F6FF7FAD3F0280ACF8FF7F01000000F5
:1026E0008CFAFF7FB0A803809CFAFF7F01000000F6
:1026F00098FAFF7FB0AD04805CFDFF7F008404800A
:1027000084FDFF7F34FFFF7F88FDFF7F38FFFF7F61
:0827100094FDFF7F01000000B1
:0C27180024270000000000201F0000002B
:10272400C0EA2101C0EA210100F049020080000052
:102734001400002000000000000000000000000061
:102744000000000000000000000000000000000085
:102754000000000000000000000000000000000075
:102764000000000000000000000000000000000065
:102774000000000000000000000000000000000055
:102784000000000000000000000000000000000045
:0C27940000000000E5070000C107000085
:040000030000087D74
:00000001FF
